S00B00004156522E7372656330
S11300000C947A040C9497040C9497040C9497041D
S11300100C9497040C9497040C94230A0C9497045E
S11300200C9497040C94FE090C9497040C94970474
S11300300C9497040C9497040C9497040C949704D0
S11300400C9497040C9497040C9497040C949704C0
S11300500C9497040600000000000000000000005B
S113006000000000000000000000000200007E0309
S1130070000000000000000000000000000000007C
S113008000000400000F0000000F0000000000004A
S113009000000000000000000008000040004803C9
S11300A0F8004E03F8004E000800000000000000B5
S11300B00618022402FF0F440244028401000000D7
S11300C0000000000000000B00001C0022002202BF
S11300D09C0160001000CC0122022002C00108CC67
S11300E00132022202220252028C01E001000200CB
S11300F000000000000200000F00000000000000EB
S1130100000000000000000000000000050000F0F6
S1130110010C0602080110000000000000000000AD
S113012000000004011002080C06F00100000000A9
S1130130000000000000000000000600000A0004A7
S1130140001F0004000A000000000000000000007E
S11301500007200020002000FC01200020002000D7
S1130160000000000000000002000800070000007A
S11301700000000000000000000000000000000477
S113018020002000200020000000000000000000EB
S11301900000000000000200000003000000000056
S11301A00000000000000000000000000005000C3A
S11301B0800360001C000300000000000000000039
S11301C00000000006FC010202020202020202FC1C
S11301D0010000000000000000000006000004020E
S11301E00402FE0300020002000000000000000000
S11301F0000006040382024202420222021C0200A0
S113020000000000000000000006040102022202B7
S113021022022202DC0100000000000000000000B5
S1130220066000500048004400FE03400000000047
S113023000000000000000061E0112021202120259
S11302401202E2010000000000000000000006F8B5
S1130250011402120212021202E001000000000066
S113026000000000000602000202820162001A007F
S113027006000000000000000000000006DC01226F
S113028002220222022202DC01000000000000001F
S1130290000000063C004202420242024201FC000D
S11302A0000000000000000000000300000000182F
S11302B00300000000000000000000000000000037
S11302C00003000000081807000000000000000000
S11302D00000000000000000080000200020005082
S11302E0005000880088000401000000000000089D
S11302F0000090009000900090009000900090000A
S1130300000000000000080000040188008800507C
S11303100050002000200000000000000005040040
S11303204203220012000C00000000000000000044
S1130330000000000BF0000C030402F2040A050A9A
S1130340050A05FA0504010C01F000070003E000AA
S1130350980086009800E000000300000000000000
S1130360000006FE032202220222023C02C0010017
S113037000000000000000000007F8000401020271
S11303800202020202020401000000000000000058
S113039007FE0302020202020202020401F8000044
S11303A00000000000000006FE03220222022202D6
S11303B0220222020000000000000000000006FEED
S11303C0032200220022002200220000000000007C
S11303D0000000000007F8000401020202024202C9
S11303E04202C403000000000000000007FE0320D6
S11303F0002000200020002000FE03000000000078
S1130400000000030202FE030202000000000000DC
S113041000000000000000000000040002020202CC
S113042002FE0100000000000000000000000000C7
S11304300006FE03200050008800040102020000B0
S1130440000000000000000005FE0300020002009E
S1130450020002000000000000000000000000098B
S1130460FE0306001800600080016000180006000A
S1130470FE030000000007FE03060018002000C071
S1130480000003FE03000000000000000008F80064
S1130490040102020202020202020401F800000046
S11304A00000000006FE0322002200220022001C9D
S11304B0000000000000000000000008F800040133
S11304C0020202020206020A0409F80800000000FF
S11304D0000007FE03220022006200A2001C0100AB
S11304E0020000000000000000071C01220222029A
S11304F0220222022202C4010000000000000000C7
S113050007020002000200FE0302000200020000D3
S11305100000000000000007FE00000100020002CD
S113052000020001FE000000000000000000070EB1
S1130530003000C0000003C00030000E00000000C6
S113054000000000000B1E00E0010002C0013800A2
S113055006003800C0010002E0011E000702020488
S113056001D8002000D800040102020000000000AD
S11305700000000702000C001000E00310000C0053
S11305800200000000000000000006020382026274
S11305900212020A0206020000000000000000002D
S11305A000040000FF0F0108010800000000000023
S11305B000000000000000000503001C0060008033
S11305C003000C0000000000000000000000000414
S11305D0000001080108FF0F0000000000000000F7
S11305E000000000000009000010000800040002E0
S11305F000020004000800100000000000070008CA
S113060000080008000800080008000800000000B6
S113061000000000050000000000000100020000CE
S113062000000000000000000000000680014802F5
S1130630480248024801F0030000000000000000E6
S1130640000006FF031002080208020802F001007D
S113065000000000000000000005F001080208028C
S11306600802080200000000000000000000000072
S113067006F0010802080208020801FF0300000056
S11306800000000000000006F00148024802480291
S1130690480270010000000000000000000005088E
S11306A000FE030900090001000000000000000032
S11306B0000000000006F0010812081208120811D8
S11306C0F80F0000000000000000000006FF031007
S11306D000080008000800F003000000000000000B
S11306E0000000020000FA03000000000000000007
S11306F0000000000000000000000300100810FAD1
S11307000F000000000000000000000000000000D6
S11307100005FF034000A0001001080200000000D3
S11307200000000000000000020000FF03000000C1
S11307300000000000000000000000000000000AAB
S11307400000F803100008000800F003100008007F
S11307500800F003000006F8031000080008000871
S113076000F0030000000000000000000006F0019B
S11307700802080208020802F0010000000000005C
S11307800000000006F81F1002080208020802F028
S1130790010000000000000000000006F001080253
S11307A0080208020801F81F000000000000000011
S11307B0000004F803100008000800000000000016
S11307C0000000000000000000053001480248025B
S11307D0480290010000000000000000000000003A
S11307E0040800FE010802080200000000000000E6
S11307F00000000000000006F801000200020002F0
S11308000001F803000000000000000000000518CB
S113081000E0000003E000180000000000000000F9
S11308200000000000091800E0000003E0001800C8
S1130830E0000003E000180000000000050802B01A
S1130840014000B0010802000000000000000000A8
S1130850000000051800E0180007E0001800000080
S113086000000000000000000000050803880248A2
S1130870022802180200000000000000000000002E
S1130880000540004000BE07010801080000000008
S113089000000000000000000300000000FF0F0043
S11308A0000000000000000000000000000000053F
S11308B001080108BE0740004000000000000000DD
S11308C0000000000000080000600010001000207C
S11308D00040004000300000000000000003FF035F
S11308E00102FF03000000000000000000000000FF
S11308F00000000011241FBECFE5D8E0DEBFCDBF4D
S113090010E0A0E6B0E0E0E2F6E102C005900D924E
S1130910A237B107D9F724E0A2E7B0E001C01D92E5
S1130920AF38B207E1F70E9463090C940E0B0C94E4
S11309300000811103C0C498C39A0895813019F44A
S1130940C398C49A0895C39AC49A08950E949904B6
S1130950D798C098C19AC29885E08A95F1F70000AB
S1130960C29A95E09A95F1F7000089B3C2989AE289
S11309709A95F1F700C088239CF3C198D79A0895FB
S113098080FF02C0D89A01C0D89881FF02C0D99ACA
S113099001C0D99882FF02C0DA9A01C0DA9883FFB5
S11309A002C0DB9A01C0DB9884FF02C0DC9A01C05C
S11309B0DC9885FF02C0DD9A01C0DD9886FF02C085
S11309C0DE9A01C0DE98882314F4DF9A01C0DF9810
S11309D0C29A85E08A95F1F70000C29885E08A956D
S11309E0F1F700000895CF93DF93D82FC62F62301C
S11309F021F0862F0E94A60406C080E00E94A6046F
S1130A0081E00E94A6048C2F0E949904C098C1988A
S1130A108D2F0E94C004DF91CF910895CF93DF936F
S1130A20D82FC62F623021F0862F0E94A60406C05C
S1130A3080E00E94A60481E00E94A6048C2F0E94FC
S1130A409904C09AC198809188008130C1F08D2F9B
S1130A5080950E94C004E6E8F0E0808191E0980F60
S1130A609083903431F48F5361E080640E94F304E6
S1130A7012C0992384F48FE7809386000CC08D2FD5
S1130A800E94C004E6E8F0E0808191E0980F908332
S1130A90903479F7E8CFDF91CF910895CF92DF9228
S1130AA0EF92FF920F931F93CF93DF93D12C06E81D
S1130AB010E0C12CFF24F394EC2CF801C0826C2DBF
S1130AC080E40E94F304FFE3FD1560F1F801D18294
S1130AD062E08D2D869586958695886B0E94F30439
S1130AE021C06F2DC03408F46E2DF80181818695E4
S1130AF086958695FE01EE0FFF1FEE0FFF1FEE0F8A
S1130B00FF1FE157FF4FE80FF11D80810E940E0582
S1130B102196C038D10529F7F8E0DF0E80E4D81219
S1130B20CCCF03C0C0E0D0E0DCCFDF91CF911F91E8
S1130B300F91FF90EF90DF90CF90089580918800FF
S1130B40811104C081E08093880008951092880088
S1130B500895882314F08093860008959091870067
S1130B60903410F4809387000895CF93C62F0E9489
S1130B70A9058C2F0E94AE05CF910895D09AD19AE1
S1130B80D29AD39AD49AD59AD69AD79ABB9ABC9A1F
S1130B90B89ABA9AB99ABD9AC098C198C298C59899
S1130BA08FE19EE40197F1F700C00000C59A9FEF22
S1130BB020E782E0915020408040E1F700C000002F
S1130BC062E08FE30E94F30462E080EC0E94F3048D
S1130BD060E080E00E94B505E6E8F0E081E0828311
S1130BE017821682158211821082089590E008C03F
S1130BF080833896E217F307D9F7985F903459F059
S1130C00292F26952695269530E0F901E157FF4FC7
S1130C1021573B4FEDCF089581E0909188009130AA
S1130C2009F480E081950E94F60508956623E4F0B6
S1130C304034D0F42230C0F4E6E8F0E094838383B7
S1130C406583468350E041505109CA0199230CF44D
S1130C5007969595879595958795959587958F5F33
S1130C6080938D0020938E0008952F923F924F928F
S1130C705F926F927F928F929F92AF92BF92CF9228
S1130C80DF92EF92FF920F931F93CF93DF9300D0E5
S1130C9000D0CDB7DEB7E6E8F0E04080D1805780E1
S1130CA02581259D900111242F5F3F4F8052829F03
S1130CB0A001839F500D11245A8349830380F4813A
S1130CC0E02DE40FF51F7490842D870D1AF480E84D
S1130CD0782E74188D2D869586958695952D980F6A
S1130CE0993018F098E0592E581A5D2D5770A52E9A
S1130CF0552009F45AC189819A819C838B836D2C78
S1130D0010E00F2EF6E88F2EF0E09F2EF02D88E0F5
S1130D1090E01C01251A3108B52CC42C662D8C2DAD
S1130D200E94B5054B805C80BFEF4B1A5B0A7720AD
S1130D3009F45AC0F40163817481278130E0E084AE
S1130D40418146954695469550E00081CB01840D3E
S1130D50951DF02EF70CE12F1E2DEE2EFC01A49113
S1130D60EA2FF0E0DF010A2C02C0AA0FBB1F0A948D
S1130D70E2F7EA2FEE2099F0EB81FC81E60FF71FF2
S1130D80E491F0E0022C02C0F595E7950A94E2F7AD
S1130D90EA2BAB81BC81A20FB31FBC83AB831130A0
S1130DA071F4A02FB0E0AA0FBB1FAA0FBB1FAA0F9C
S1130DB0BB1FA157BF4FA40FB51FFC91EF2BA02F52
S1130DC0B0E0AA0FBB1FAA0FBB1FAA0FBB1FA157DE
S1130DD0BF4FA40FB51FEC930F5F820F931FF01248
S1130DE0BDCF1E2DF401F082D40118968C91189772
S1130DF0882399F0EC91F0E011968C918695869574
S1130E008695EE0FFF1FEE0FFF1FEE0FFF1FE1573A
S1130E10FF4FE80FF11D908101C090E0D401EC91E7
S1130E20F0E011968C91869586958695EE0FFF1FBE
S1130E30EE0FFF1FEE0FFF1FE157FF4FE80FF11DED
S1130E409083B8E06B0E1F5F5C824B82B11266CF59
S1130E504C2C6FE16B0D660F660F660F88E08D0DED
S1130E60680FE1E0EB1508F0A0C08C2D0E94B505D9
S1130E7089819A818B0D911D772009F44CC0A6E8D5
S1130E80B0E06C9170E011964C911197469546959F
S1130E90469550E018961C9118979B01220F331F1A
S1130EA0220F331F220F331F21573F4F240F351FAB
S1130EB0F901F081FB8317962C91179730E0139674
S1130EC0ED91FC911497E80FF91F1982A8E0B0E0A6
S1130ED0AA19B109849190E00A2E02C095958795CC
S1130EE00A94E2F70B81802B113009F4802B99814D
S1130EF09F5F9983E20FF31F8B837912EBCF660F09
S1130F00771F660F771F660F771F61577F4FFB01AF
S1130F10E40FF51F808380918E00882369F181306E
S1130F20A9F4A6E8B0E0EC91F0E011968C918695D6
S1130F3086958695EE0FFF1FEE0FFF1FEE0FFF1F26
S1130F40E157FF4FE80FF11D908117C0A6E8B0E00C
S1130F50EC91F0E011968C91869586958695EE0F2E
S1130F60FF1FEE0FFF1FEE0FFF1FE157FF4FE80FAC
S1130F70F11D9081909501C090E0A6E8B0E0119633
S1130F808C911197EC9121E02E0F2C93F0E0869533
S1130F9086958695EE0FFF1FEE0FFF1FEE0FFF1FC6
S1130FA0E157FF4FE80FF11D908381E0840D6D2D13
S1130FB0870D0E94B5050F900F900F900F90DF9151
S1130FC0CF911F910F91FF90EF90DF90CF90BF9042
S1130FD0AF909F908F907F906F905F904F903F90D5
S1130FE02F9008950F931F93CF93DF93EC01888183
S1130FF08823D9F0E6E8F0E09081258130E0290FDC
S1131000311D203831058CF421968F0109C0F80177
S11310109081258130E0290F311D203831052CF4D1
S11310200E94350689918111F2CFDF91CF911F91F2
S11310300F9108950F931F93CF93DF93CDB7DEB72E
S11310402C970FB6F894DEBF0FBECDBF61157105A6
S11310508105910521F480E30E94350629C18B01A5
S11310609C010150110921093109011519402D4331
S1131070310508F01DC1FE0131962CE0DF011D92FF
S11310802A95E9F720E32B872A87298728872F8346
S11310902E832D832C832B832A8329836130BAECFE
S11310A07B07BAE98B07BBE39B07A0F0DC01CB010C
S11310B021E301C0232F9A5CAA49BB4331E0320FDC
S11310C081304AEC94074AE9A4074BE3B40790F74C
S11310D02A8302C0DC01CB01811521EE920725EFA2
S11310E0A20725E0B20788F021E301C0232F915E17
S11310F0A54FB54031E0320F811541EE940745EF1D
S1131100A40745E0B40790F72B83803826E99207BB
S113111028E9A207B10588F021E301C0232F8058F4
S11311209649A849B10931E0320F803846E994075D
S113113048E9A407B10590F72C83803422E4920790
S11311402FE0A207B10588F021E301C0232F8054CA
S11311509244AF40B10931E0320F803442E4940745
S11311604FE0A407B10590F72D83803A26E8920753
S113117021E0A207B10588F021E301C0232F805AA2
S11311809648A140B10931E0320F803A46E894070D
S113119041E0A407B10590F72E83803127E292073E
S11311A0A105B10580F021E301C0232F80519742AE
S11311B0A109B10931E0320F803147E29407A1055A
S11311C0B10598F72F83883E23E09207A105B10566
S11311D080F021E301C0232F885E9340A109B10967
S11311E031E0320F883E43E09407A105B10598F73A
S11311F0288784369105A105B10578F021E301C063
S1131200232F84569109A109B10931E0320F8436A4
S11312109105A105B105A0F729878A309105A1059B
S1131220B10570F021E301C0232F0A97A109B10988
S113123031E0320F8A309105A105B105A8F72A875C
S11312400097A105B10591F1AC01BD0141505109CF
S113125061097109D9F7805D8B8728C08F5FE1E050
S1131260F0E0EC0FFD1FE80FF11D90819033B1F316
S11312704AE0481B20E090E0E1E0F0E0EC0FFD1FC5
S1131280E20FF11DDF01A80FB91F3C9130832F5FDE
S1131290421790F7E1E0F0E0EC0FFD1FE20FF11DC3
S11312A01082CE0101960E94F20702C080E0D6CFE0
S11312B02C960FB6F894DEBF0FBECDBFDF91CF9151
S11312C01F910F9108950E94BD0A8AE590E00E9443
S11312D0C20A0E94F4090E94BE050E940C060E94E4
S11312E09E050F2E812CF2E19F2EFAE7AF2EB12C32
S11312F0F02D80917E0090917F00A0918000B091AC
S1131300810083309105A105B105D9F780917A0058
S113131090917B00A0917C00B0917D00C090720000
S1131320D0907300E0907400F0907500C81AD90A48
S1131330EA0AFB0A409176005091770060917800A8
S1131340709179009A01AB01281B390B4A0B5B0B96
S1131350A4E6B0E00E94030BA70196010E94D20A02
S113136029013A0121E04DE06BE084E590E00E9420
S1131370160660E080E00E94B50580E690E00E94D9
S1131380F207C301B2010E941A0886E690E00E94A7
S1131390F20721E04DE06BE084E590E00E94160640
S11313A064E180E00E94B50588E690E00E94F207BF
S11313B0C501B401A70196010E94D20ACA01B9016C
S11313C00E941A088EE690E00E94F2070E944E05E1
S11313D010927E0010927F00109280001092810083
S11313E089B7806289BF85CF8E9817BC16BC81E40B
S11313F08EBD84E289BF80E88FBF08951F920F924B
S11314000FB60F9211248F939F93AF93BF93809144
S1131410820090918300A0918400B0918500019690
S1131420A11DB11D8093820090938300A09384003A
S1131430B0938500BF91AF919F918F910F900FBE94
S11314400F901F9018951F920F920FB60F921124B0
S11314502F933F934F935F936F937F938F939F93B8
S1131460AF93BF93EF93FF9380917E0090917F00A1
S1131470A0918000B09181000196A11DB11D8093BF
S11314807E0090937F00A0938000B0938100813010
S11314909105A105B105C1F486B597B5A0E0B0E00A
S11314A080937A0090937B00A0937C00B0937D009E
S11314B01092820010928300109284001092850092
S11314C08EB58F7B8EBD48C082309105A105B105D4
S11314D001F5E6B5F7B52091820030918300409183
S11314E0840050918500AFEFBFEF0E94030BDC0135
S11314F0CB018E0F9F1FA11DB11D80937600909389
S11315007700A0937800B09379008EB580648EBD87
S113151023C00397A105B105F9F4E6B5F7B5209109
S11315208200309183004091840050918500AFEF98
S1131530BFEF0E94030BDC01CB018E0F9F1FA11D87
S1131540B11D8093720090937300A0937400B093C4
S1131550750089B78F7D89BFFF91EF91BF91AF91DE
S11315609F918F917F916F915F914F913F912F91B7
S11315700F900FBE0F901F9018958F9A85B58A66AD
S113158085BD089520E030E0382F369527953695AF
S11315902795ABE7B4E10E94F40A969587958150AC
S11315A083BD0895A1E21A2EAA1BBB1BFD010DC029
S11315B0AA1FBB1FEE1FFF1FA217B307E407F507FF
S11315C020F0A21BB30BE40BF50B661F771F881FDB
S11315D0991F1A9469F760957095809590959B0171
S11315E0AC01BD01CF010895A29FB001B39FC0011A
S11315F0A39F700D811D1124911DB29F700D811D3B
S11316001124911D08950E94F40AA59F900DB49F82
S1131610900DA49F800D911D11240895F894FFCF7F
S1131620447574793A002500467265713A00487A27
S10516300000B4
S9030000FC
